{
  "contractName": "PaymentProcessor",
  "abi": [
    {
      "inputs": [
        {
          "internalType": "address",
          "name": "_owner",
          "type": "address"
        },
        {
          "internalType": "uint256",
          "name": "_percent",
          "type": "uint256"
        }
      ],
      "stateMutability": "nonpayable",
      "type": "constructor"
    },
    {
      "inputs": [],
      "name": "owner",
      "outputs": [
        {
          "internalType": "address",
          "name": "owner_",
          "type": "address"
        }
      ],
      "stateMutability": "view",
      "type": "function"
    },
    {
      "inputs": [
        {
          "internalType": "address",
          "name": "_newOwner",
          "type": "address"
        }
      ],
      "name": "transferOwnership",
      "outputs": [],
      "stateMutability": "nonpayable",
      "type": "function"
    },
    {
      "inputs": [
        {
          "internalType": "string",
          "name": "_token",
          "type": "string"
        },
        {
          "internalType": "uint256",
          "name": "_amount",
          "type": "uint256"
        },
        {
          "internalType": "uint256",
          "name": "productId",
          "type": "uint256"
        }
      ],
      "name": "pay",
      "outputs": [],
      "stateMutability": "nonpayable",
      "type": "function"
    },
    {
      "inputs": [
        {
          "internalType": "address",
          "name": "_seller",
          "type": "address"
        },
        {
          "internalType": "string",
          "name": "_token",
          "type": "string"
        }
      ],
      "name": "balanceOfSeller",
      "outputs": [
        {
          "internalType": "uint256",
          "name": "",
          "type": "uint256"
        }
      ],
      "stateMutability": "view",
      "type": "function"
    },
    {
      "inputs": [
        {
          "internalType": "uint256",
          "name": "_amount",
          "type": "uint256"
        },
        {
          "internalType": "string",
          "name": "_token",
          "type": "string"
        }
      ],
      "name": "sellerWithdraw",
      "outputs": [],
      "stateMutability": "nonpayable",
      "type": "function"
    },
    {
      "inputs": [
        {
          "internalType": "uint256",
          "name": "_amount",
          "type": "uint256"
        },
        {
          "internalType": "string",
          "name": "_token",
          "type": "string"
        }
      ],
      "name": "ownerWithdraw",
      "outputs": [],
      "stateMutability": "nonpayable",
      "type": "function"
    },
    {
      "inputs": [
        {
          "internalType": "string",
          "name": "_token",
          "type": "string"
        }
      ],
      "name": "ownerBalance",
      "outputs": [
        {
          "internalType": "uint256",
          "name": "",
          "type": "uint256"
        }
      ],
      "stateMutability": "view",
      "type": "function"
    },
    {
      "inputs": [
        {
          "internalType": "string",
          "name": "_token",
          "type": "string"
        },
        {
          "internalType": "address",
          "name": "_tokenAddr",
          "type": "address"
        }
      ],
      "name": "addToken",
      "outputs": [],
      "stateMutability": "nonpayable",
      "type": "function"
    },
    {
      "inputs": [
        {
          "internalType": "uint256",
          "name": "newPercent",
          "type": "uint256"
        }
      ],
      "name": "setPercent",
      "outputs": [],
      "stateMutability": "nonpayable",
      "type": "function"
    }
  ],
  "bytecode": "0x608060405234801561001057600080fd5b5060405161158e38038061158e8339818101604052604081101561003357600080fd5b81019080805190602001909291908051906020019092919050505081806000806101000a81548173ffffffffffffffffffffffffffffffffffffffff021916908373ffffffffffffffffffffffffffffffffffffffff160217905550508060018190555050506114e6806100a86000396000f3fe608060405234801561001057600080fd5b50600436106100935760003560e01c80638c0dce20116100665780638c0dce20146103295780638da5cb5b14610418578063b0b22c2c14610462578063b7eca14a1461053d578063f2fde38b1461060257610093565b806320192a7714610098578063217d005a146101675780633986c6eb146102365780637154b8b5146102fb575b600080fd5b610165600480360360608110156100ae57600080fd5b81019080803590602001906401000000008111156100cb57600080fd5b8201836020820111156100dd57600080fd5b803590602001918460018302840111640100000000831117156100ff57600080fd5b91908080601f016020809104026020016040519081016040528093929190818152602001838380828437600081840152601f19601f8201169050808301925050505050505091929192908035906020019092919080359060200190929190505050610646565b005b6102206004803603602081101561017d57600080fd5b810190808035906020019064010000000081111561019a57600080fd5b8201836020820111156101ac57600080fd5b803590602001918460018302840111640100000000831117156101ce57600080fd5b91908080601f016020809104026020016040519081016040528093929190818152602001838380828437600081840152601f19601f8201169050808301925050505050505091929192905050506109b2565b6040518082815260200191505060405180910390f35b6102f96004803603604081101561024c57600080fd5b81019080803590602001909291908035906020019064010000000081111561027357600080fd5b82018360208201111561028557600080fd5b803590602001918460018302840111640100000000831117156102a757600080fd5b91908080601f016020809104026020016040519081016040528093929190818152602001838380828437600081840152601f19601f820116905080830192505050505050509192919290505050610ab0565b005b6103276004803603602081101561031157600080fd5b8101908080359060200190929190505050610dd8565b005b6104026004803603604081101561033f57600080fd5b81019080803573ffffffffffffffffffffffffffffffffffffffff1690602001909291908035906020019064010000000081111561037c57600080fd5b82018360208201111561038e57600080fd5b803590602001918460018302840111640100000000831117156103b057600080fd5b91908080601f016020809104026020016040519081016040528093929190818152602001838380828437600081840152601f19601f820116905080830192505050505050509192919290505050610e6d565b6040518082815260200191505060405180910390f35b610420610f1e565b604051808273ffffffffffffffffffffffffffffffffffffffff1673ffffffffffffffffffffffffffffffffffffffff16815260200191505060405180910390f35b61053b6004803603604081101561047857600080fd5b810190808035906020019064010000000081111561049557600080fd5b8201836020820111156104a757600080fd5b803590602001918460018302840111640100000000831117156104c957600080fd5b91908080601f016020809104026020016040519081016040528093929190818152602001838380828437600081840152601f19601f820116905080830192505050505050509192919290803573ffffffffffffffffffffffffffffffffffffffff169060200190929190505050610f47565b005b6106006004803603604081101561055357600080fd5b81019080803590602001909291908035906020019064010000000081111561057a57600080fd5b82018360208201111561058c57600080fd5b803590602001918460018302840111640100000000831117156105ae57600080fd5b91908080601f016020809104026020016040519081016040528093929190818152602001838380828437600081840152601f19601f82011690508083019250505050505050919291929050505061107e565b005b6106446004803603602081101561061857600080fd5b81019080803573ffffffffffffffffffffffffffffffffffffffff1690602001909291905050506113be565b005b6003836040518082805190602001908083835b6020831061067c5780518252602082019150602081019050602083039250610659565b6001836020036101000a038019825116818451168082178552505050505050905001915050908152602001604051809103902060009054906101000a900473ffffffffffffffffffffffffffffffffffffffff16600260006101000a81548173ffffffffffffffffffffffffffffffffffffffff021916908373ffffffffffffffffffffffffffffffffffffffff16021790555060006006600083815260200190815260200160002060009054906101000a900473ffffffffffffffffffffffffffffffffffffffff1690506000806107578560015461145a565b915091506000600260009054906101000a900473ffffffffffffffffffffffffffffffffffffffff1673ffffffffffffffffffffffffffffffffffffffff166323b872dd3330896040518463ffffffff1660e01b8152600401808473ffffffffffffffffffffffffffffffffffffffff1673ffffffffffffffffffffffffffffffffffffffff1681526020018373ffffffffffffffffffffffffffffffffffffffff1673ffffffffffffffffffffffffffffffffffffffff1681526020018281526020019350505050602060405180830381600087803b15801561083a57600080fd5b505af115801561084e573d6000803e3d6000fd5b505050506040513d602081101561086457600080fd5b8101908080519060200190929190505050905080156109a95781600460008673ffffffffffffffffffffffffffffffffffffffff1673ffffffffffffffffffffffffffffffffffffffff168152602001908152602001600020886040518082805190602001908083835b602083106108f157805182526020820191506020810190506020830392506108ce565b6001836020036101000a038019825116818451168082178552505050505050905001915050908152602001604051809103902060008282540192505081905550826005886040518082805190602001908083835b602083106109685780518252602082019150602081019050602083039250610945565b6001836020036101000a0380198251168184511680821785525050505050509050019150509081526020016040518091039020600082825401925050819055505b50505050505050565b60006109bc610f1e565b73ffffffffffffffffffffffffffffffffffffffff163373ffffffffffffffffffffffffffffffffffffffff1614610a3f576040517f08c379a000000000000000000000000000000000000000000000000000000000815260040180806020018281038252602c815260200180611485602c913960400191505060405180910390fd5b6005826040518082805190602001908083835b60208310610a755780518252602082019150602081019050602083039250610a52565b6001836020036101000a0380198251168184511680821785525050505050509050019150509081526020016040518091039020549050919050565b81600460003373ffffffffffffffffffffffffffffffffffffffff1673ffffffffffffffffffffffffffffffffffffffff168152602001908152602001600020826040518082805190602001908083835b60208310610b245780518252602082019150602081019050602083039250610b01565b6001836020036101000a0380198251168184511680821785525050505050509050019150509081526020016040518091039020541015610b6357600080fd5b6003816040518082805190602001908083835b60208310610b995780518252602082019150602081019050602083039250610b76565b6001836020036101000a038019825116818451168082178552505050505050905001915050908152602001604051809103902060009054906101000a900473ffffffffffffffffffffffffffffffffffffffff16600260006101000a81548173ffffffffffffffffffffffffffffffffffffffff021916908373ffffffffffffffffffffffffffffffffffffffff16021790555081600460003373ffffffffffffffffffffffffffffffffffffffff1673ffffffffffffffffffffffffffffffffffffffff168152602001908152602001600020826040518082805190602001908083835b60208310610ca15780518252602082019150602081019050602083039250610c7e565b6001836020036101000a0380198251168184511680821785525050505050509050019150509081526020016040518091039020600082825403925050819055506000600260009054906101000a900473ffffffffffffffffffffffffffffffffffffffff1673ffffffffffffffffffffffffffffffffffffffff1663a9059cbb33856040518363ffffffff1660e01b8152600401808373ffffffffffffffffffffffffffffffffffffffff1673ffffffffffffffffffffffffffffffffffffffff16815260200182815260200192505050602060405180830381600087803b158015610d8c57600080fd5b505af1158015610da0573d6000803e3d6000fd5b505050506040513d6020811015610db657600080fd5b8101908080519060200190929190505050905080610dd357600080fd5b505050565b610de0610f1e565b73ffffffffffffffffffffffffffffffffffffffff163373ffffffffffffffffffffffffffffffffffffffff1614610e63576040517f08c379a000000000000000000000000000000000000000000000000000000000815260040180806020018281038252602c815260200180611485602c913960400191505060405180910390fd5b8060018190555050565b6000600460008473ffffffffffffffffffffffffffffffffffffffff1673ffffffffffffffffffffffffffffffffffffffff168152602001908152602001600020826040518082805190602001908083835b60208310610ee25780518252602082019150602081019050602083039250610ebf565b6001836020036101000a038019825116818451168082178552505050505050905001915050908152602001604051809103902054905092915050565b60008060009054906101000a900473ffffffffffffffffffffffffffffffffffffffff16905090565b610f4f610f1e565b73ffffffffffffffffffffffffffffffffffffffff163373ffffffffffffffffffffffffffffffffffffffff1614610fd2576040517f08c379a000000000000000000000000000000000000000000000000000000000815260040180806020018281038252602c815260200180611485602c913960400191505060405180910390fd5b806003836040518082805190602001908083835b602083106110095780518252602082019150602081019050602083039250610fe6565b6001836020036101000a038019825116818451168082178552505050505050905001915050908152602001604051809103902060006101000a81548173ffffffffffffffffffffffffffffffffffffffff021916908373ffffffffffffffffffffffffffffffffffffffff1602179055505050565b611086610f1e565b73ffffffffffffffffffffffffffffffffffffffff163373ffffffffffffffffffffffffffffffffffffffff1614611109576040517f08c379a000000000000000000000000000000000000000000000000000000000815260040180806020018281038252602c815260200180611485602c913960400191505060405180910390fd5b816005826040518082805190602001908083835b60208310611140578051825260208201915060208101905060208303925061111d565b6001836020036101000a038019825116818451168082178552505050505050905001915050908152602001604051809103902054101561117f57600080fd5b6003816040518082805190602001908083835b602083106111b55780518252602082019150602081019050602083039250611192565b6001836020036101000a038019825116818451168082178552505050505050905001915050908152602001604051809103902060009054906101000a900473ffffffffffffffffffffffffffffffffffffffff16600260006101000a81548173ffffffffffffffffffffffffffffffffffffffff021916908373ffffffffffffffffffffffffffffffffffffffff160217905550816005826040518082805190602001908083835b60208310611280578051825260208201915060208101905060208303925061125d565b6001836020036101000a0380198251168184511680821785525050505050509050019150509081526020016040518091039020600082825403925050819055506000600260009054906101000a900473ffffffffffffffffffffffffffffffffffffffff1673ffffffffffffffffffffffffffffffffffffffff1663a9059cbb611308610f1e565b856040518363ffffffff1660e01b8152600401808373ffffffffffffffffffffffffffffffffffffffff1673ffffffffffffffffffffffffffffffffffffffff16815260200182815260200192505050602060405180830381600087803b15801561137257600080fd5b505af1158015611386573d6000803e3d6000fd5b505050506040513d602081101561139c57600080fd5b81019080805190602001909291905050509050806113b957600080fd5b505050565b6000809054906101000a900473ffffffffffffffffffffffffffffffffffffffff1673ffffffffffffffffffffffffffffffffffffffff163373ffffffffffffffffffffffffffffffffffffffff161461141757600080fd5b806000806101000a81548173ffffffffffffffffffffffffffffffffffffffff021916908373ffffffffffffffffffffffffffffffffffffffff16021790555050565b600080600060648585028161146b57fe5b049050600081860390508181935093505050925092905056fe6f6e6c7920746865206f776e657220686176652061636365737320746f20746861742066756e6374696f6e2ea26469706673582212207e721e47da221126c18183dc957371742d3c496837614f71d594e205ad6b66b164736f6c63430006000033",
  "source": "pragma solidity ^0.6.0;\r\n\r\nimport './interfaces/IERC20.sol';\r\nimport './Ownership.sol';\r\n\r\ncontract PaymentProcessor is Ownership{\r\n    \r\n    uint256 private percent;\r\n    IERC20 private token;\r\n\r\n    //only for ERC-20 tokens\r\n    mapping (string=>address) private _tokenAddress;\r\n    mapping (address=>mapping(string=>uint256)) private _sellerBalance;\r\n    mapping (string=>uint256) private _ownerBalance;\r\n    mapping (uint256=>address) private _productSeller;\r\n\r\n    modifier onlyOwner{\r\n        require(msg.sender == owner(), \"only the owner have access to that function.\");\r\n        _;\r\n    }\r\n\r\n    constructor(address _owner, uint256 _percent) public Ownership(_owner){\r\n        percent = _percent;\r\n    }\r\n\r\n    //pay for the product\r\n    function pay(string memory _token,uint256 _amount,uint256 productId) public{\r\n        token = IERC20(_tokenAddress[_token]);\r\n        address seller = _productSeller[productId];\r\n        (uint256 ownerAmount, uint256 sellerAmount) = percentage(_amount, percent);\r\n        bool success = token.transferFrom(msg.sender,address(this), _amount);\r\n        if(success){\r\n            _sellerBalance[seller][_token] += sellerAmount;\r\n            _ownerBalance[_token] += ownerAmount; \r\n        }\r\n    }\r\n\r\n    function balanceOfSeller(address _seller,string memory _token) public view returns(uint256){\r\n        return _sellerBalance[_seller][_token];\r\n    }\r\n\r\n    function sellerWithdraw(uint256 _amount, string memory _token) public {\r\n        require(_sellerBalance[msg.sender][_token] >= _amount);\r\n        token = IERC20(_tokenAddress[_token]);\r\n        _sellerBalance[msg.sender][_token] -= _amount;\r\n        bool success = token.transfer(msg.sender,_amount);\r\n        require(success);\r\n    }\r\n\r\n    function ownerWithdraw(uint256 _amount, string memory _token) public onlyOwner{\r\n        require(_ownerBalance[_token] >= _amount);\r\n        token = IERC20(_tokenAddress[_token]);\r\n        _ownerBalance[_token] -= _amount;\r\n        bool success = token.transfer(owner(),_amount);\r\n        require(success);\r\n    }\r\n\r\n    function ownerBalance(string memory _token) public view onlyOwner returns(uint256){\r\n        return _ownerBalance[_token];\r\n    }\r\n\r\n    //add new payment form\r\n    function addToken(string memory _token, address _tokenAddr) public onlyOwner{\r\n        _tokenAddress[_token] = _tokenAddr;\r\n    }\r\n\r\n    function setPercent(uint256 newPercent) public onlyOwner{\r\n        percent = newPercent;\r\n    }\r\n\r\n    function percentage(uint256 _amount, uint256 _percent) internal pure returns(uint256,uint256){\r\n        uint256 ownerAmount = (_percent * _amount) / 100;\r\n        uint256 sellerAmount = _amount - ownerAmount;\r\n        return (ownerAmount, sellerAmount);\r\n    }\r\n}\r\n",
  "sourcePath": "C:/Users/esdra/Downloads/paymentProcessor/contracts/PaymentProcessor.sol",
  "compiler": {
    "name": "solc",
    "version": "0.6.0+commit.26b70077.Emscripten.clang"
  },
  "schemaVersion": "3.3.4",
  "updatedAt": "2021-08-17T19:56:26.015Z",
  "devdoc": {
    "methods": {}
  },
  "userdoc": {
    "methods": {}
  }
}