{
  "contractName": "PaymentProcessor",
  "abi": [
    {
      "inputs": [
        {
          "internalType": "address",
          "name": "_owner",
          "type": "address"
        },
        {
          "internalType": "uint256",
          "name": "_percent",
          "type": "uint256"
        }
      ],
      "stateMutability": "nonpayable",
      "type": "constructor"
    },
    {
      "anonymous": false,
      "inputs": [
        {
          "indexed": false,
          "internalType": "address",
          "name": "buyer",
          "type": "address"
        },
        {
          "indexed": false,
          "internalType": "uint256",
          "name": "productId",
          "type": "uint256"
        }
      ],
      "name": "Paid",
      "type": "event"
    },
    {
      "inputs": [],
      "name": "owner",
      "outputs": [
        {
          "internalType": "address",
          "name": "owner_",
          "type": "address"
        }
      ],
      "stateMutability": "view",
      "type": "function"
    },
    {
      "inputs": [
        {
          "internalType": "address",
          "name": "_newOwner",
          "type": "address"
        }
      ],
      "name": "transferOwnership",
      "outputs": [],
      "stateMutability": "nonpayable",
      "type": "function"
    },
    {
      "inputs": [
        {
          "internalType": "string",
          "name": "_token",
          "type": "string"
        },
        {
          "internalType": "uint256",
          "name": "_amount",
          "type": "uint256"
        },
        {
          "internalType": "address",
          "name": "_seller",
          "type": "address"
        },
        {
          "internalType": "uint256",
          "name": "_productPrice",
          "type": "uint256"
        },
        {
          "internalType": "uint256",
          "name": "_productId",
          "type": "uint256"
        }
      ],
      "name": "pay",
      "outputs": [],
      "stateMutability": "payable",
      "type": "function"
    },
    {
      "inputs": [
        {
          "internalType": "address",
          "name": "_seller",
          "type": "address"
        },
        {
          "internalType": "string",
          "name": "_token",
          "type": "string"
        }
      ],
      "name": "balanceOfSeller",
      "outputs": [
        {
          "internalType": "uint256",
          "name": "",
          "type": "uint256"
        }
      ],
      "stateMutability": "view",
      "type": "function"
    },
    {
      "inputs": [
        {
          "internalType": "uint256",
          "name": "_amount",
          "type": "uint256"
        },
        {
          "internalType": "string",
          "name": "_token",
          "type": "string"
        }
      ],
      "name": "sellerWithdraw",
      "outputs": [],
      "stateMutability": "nonpayable",
      "type": "function"
    },
    {
      "inputs": [
        {
          "internalType": "uint256",
          "name": "_amount",
          "type": "uint256"
        },
        {
          "internalType": "string",
          "name": "_token",
          "type": "string"
        }
      ],
      "name": "ownerWithdraw",
      "outputs": [],
      "stateMutability": "nonpayable",
      "type": "function"
    },
    {
      "inputs": [
        {
          "internalType": "string",
          "name": "_token",
          "type": "string"
        }
      ],
      "name": "ownerBalance",
      "outputs": [
        {
          "internalType": "uint256",
          "name": "",
          "type": "uint256"
        }
      ],
      "stateMutability": "view",
      "type": "function"
    },
    {
      "inputs": [
        {
          "internalType": "string",
          "name": "_token",
          "type": "string"
        },
        {
          "internalType": "address",
          "name": "_tokenAddr",
          "type": "address"
        }
      ],
      "name": "addToken",
      "outputs": [],
      "stateMutability": "nonpayable",
      "type": "function"
    },
    {
      "inputs": [
        {
          "internalType": "uint256",
          "name": "newPercent",
          "type": "uint256"
        }
      ],
      "name": "setPercent",
      "outputs": [],
      "stateMutability": "nonpayable",
      "type": "function"
    }
  ],
  "bytecode": "0x608060405234801561001057600080fd5b50604051611d20380380611d208339818101604052604081101561003357600080fd5b81019080805190602001909291908051906020019092919050505081806000806101000a81548173ffffffffffffffffffffffffffffffffffffffff021916908373ffffffffffffffffffffffffffffffffffffffff16021790555050806001819055505050611c78806100a86000396000f3fe6080604052600436106100865760003560e01c80638da5cb5b116100595780638da5cb5b14610370578063b0b22c2c146103c7578063b7eca14a146104af578063d8bb998914610581578063f2fde38b1461067a57610086565b8063217d005a1461008b5780633986c6eb146101675780637154b8b5146102395780638c0dce2014610274575b600080fd5b34801561009757600080fd5b50610151600480360360208110156100ae57600080fd5b81019080803590602001906401000000008111156100cb57600080fd5b8201836020820111156100dd57600080fd5b803590602001918460018302840111640100000000831117156100ff57600080fd5b91908080601f016020809104026020016040519081016040528093929190818152602001838380828437600081840152601f19601f8201169050808301925050505050505091929192905050506106cb565b6040518082815260200191505060405180910390f35b34801561017357600080fd5b506102376004803603604081101561018a57600080fd5b8101908080359060200190929190803590602001906401000000008111156101b157600080fd5b8201836020820111156101c357600080fd5b803590602001918460018302840111640100000000831117156101e557600080fd5b91908080601f016020809104026020016040519081016040528093929190818152602001838380828437600081840152601f19601f8201169050808301925050505050505091929192905050506107c9565b005b34801561024557600080fd5b506102726004803603602081101561025c57600080fd5b8101908080359060200190929190505050610d39565b005b34801561028057600080fd5b5061035a6004803603604081101561029757600080fd5b81019080803573ffffffffffffffffffffffffffffffffffffffff169060200190929190803590602001906401000000008111156102d457600080fd5b8201836020820111156102e657600080fd5b8035906020019184600183028401116401000000008311171561030857600080fd5b91908080601f016020809104026020016040519081016040528093929190818152602001838380828437600081840152601f19601f820116905080830192505050505050509192919290505050610dce565b6040518082815260200191505060405180910390f35b34801561037c57600080fd5b50610385610e7f565b604051808273ffffffffffffffffffffffffffffffffffffffff1673ffffffffffffffffffffffffffffffffffffffff16815260200191505060405180910390f35b3480156103d357600080fd5b506104ad600480360360408110156103ea57600080fd5b810190808035906020019064010000000081111561040757600080fd5b82018360208201111561041957600080fd5b8035906020019184600183028401116401000000008311171561043b57600080fd5b91908080601f016020809104026020016040519081016040528093929190818152602001838380828437600081840152601f19601f820116905080830192505050505050509192919290803573ffffffffffffffffffffffffffffffffffffffff169060200190929190505050610ea8565b005b3480156104bb57600080fd5b5061057f600480360360408110156104d257600080fd5b8101908080359060200190929190803590602001906401000000008111156104f957600080fd5b82018360208201111561050b57600080fd5b8035906020019184600183028401116401000000008311171561052d57600080fd5b91908080601f016020809104026020016040519081016040528093929190818152602001838380828437600081840152601f19601f820116905080830192505050505050509192919290505050610fdf565b005b610678600480360360a081101561059757600080fd5b81019080803590602001906401000000008111156105b457600080fd5b8201836020820111156105c657600080fd5b803590602001918460018302840111640100000000831117156105e857600080fd5b91908080601f016020809104026020016040519081016040528093929190818152602001838380828437600081840152601f19601f82011690508083019250505050505050919291929080359060200190929190803573ffffffffffffffffffffffffffffffffffffffff1690602001909291908035906020019092919080359060200190929190505050611531565b005b34801561068657600080fd5b506106c96004803603602081101561069d57600080fd5b81019080803573ffffffffffffffffffffffffffffffffffffffff169060200190929190505050611b50565b005b60006106d5610e7f565b73ffffffffffffffffffffffffffffffffffffffff163373ffffffffffffffffffffffffffffffffffffffff1614610758576040517f08c379a000000000000000000000000000000000000000000000000000000000815260040180806020018281038252602c815260200180611c17602c913960400191505060405180910390fd5b6005826040518082805190602001908083835b6020831061078e578051825260208201915060208101905060208303925061076b565b6001836020036101000a0380198251168184511680821785525050505050509050019150509081526020016040518091039020549050919050565b81600460003373ffffffffffffffffffffffffffffffffffffffff1673ffffffffffffffffffffffffffffffffffffffff168152602001908152602001600020826040518082805190602001908083835b6020831061083d578051825260208201915060208101905060208303925061081a565b6001836020036101000a038019825116818451168082178552505050505050905001915050908152602001604051809103902054101561087c57600080fd5b6040518060400160405280600581526020017f65746865720000000000000000000000000000000000000000000000000000008152506040516020018082805190602001908083835b602083106108e857805182526020820191506020810190506020830392506108c5565b6001836020036101000a03801982511681845116808217855250505050505090500191505060405160208183030381529060405280519060200120816040516020018082805190602001908083835b6020831061095a5780518252602082019150602081019050602083039250610937565b6001836020036101000a038019825116818451168082178552505050505050905001915050604051602081830303815290604052805190602001201415610ac45781600460003373ffffffffffffffffffffffffffffffffffffffff1673ffffffffffffffffffffffffffffffffffffffff168152602001908152602001600020826040518082805190602001908083835b60208310610a0f57805182526020820191506020810190506020830392506109ec565b6001836020036101000a03801982511681845116808217855250505050505090500191505090815260200160405180910390206000828254039250508190555060003373ffffffffffffffffffffffffffffffffffffffff168360405180600001905060006040518083038185875af1925050503d8060008114610aaf576040519150601f19603f3d011682016040523d82523d6000602084013e610ab4565b606091505b5050905080610ac257600080fd5b505b6003816040518082805190602001908083835b60208310610afa5780518252602082019150602081019050602083039250610ad7565b6001836020036101000a038019825116818451168082178552505050505050905001915050908152602001604051809103902060009054906101000a900473ffffffffffffffffffffffffffffffffffffffff16600260006101000a81548173ffffffffffffffffffffffffffffffffffffffff021916908373ffffffffffffffffffffffffffffffffffffffff16021790555081600460003373ffffffffffffffffffffffffffffffffffffffff1673ffffffffffffffffffffffffffffffffffffffff168152602001908152602001600020826040518082805190602001908083835b60208310610c025780518252602082019150602081019050602083039250610bdf565b6001836020036101000a0380198251168184511680821785525050505050509050019150509081526020016040518091039020600082825403925050819055506000600260009054906101000a900473ffffffffffffffffffffffffffffffffffffffff1673ffffffffffffffffffffffffffffffffffffffff1663a9059cbb33856040518363ffffffff1660e01b8152600401808373ffffffffffffffffffffffffffffffffffffffff1673ffffffffffffffffffffffffffffffffffffffff16815260200182815260200192505050602060405180830381600087803b158015610ced57600080fd5b505af1158015610d01573d6000803e3d6000fd5b505050506040513d6020811015610d1757600080fd5b8101908080519060200190929190505050905080610d3457600080fd5b505050565b610d41610e7f565b73ffffffffffffffffffffffffffffffffffffffff163373ffffffffffffffffffffffffffffffffffffffff1614610dc4576040517f08c379a000000000000000000000000000000000000000000000000000000000815260040180806020018281038252602c815260200180611c17602c913960400191505060405180910390fd5b8060018190555050565b6000600460008473ffffffffffffffffffffffffffffffffffffffff1673ffffffffffffffffffffffffffffffffffffffff168152602001908152602001600020826040518082805190602001908083835b60208310610e435780518252602082019150602081019050602083039250610e20565b6001836020036101000a038019825116818451168082178552505050505050905001915050908152602001604051809103902054905092915050565b60008060009054906101000a900473ffffffffffffffffffffffffffffffffffffffff16905090565b610eb0610e7f565b73ffffffffffffffffffffffffffffffffffffffff163373ffffffffffffffffffffffffffffffffffffffff1614610f33576040517f08c379a000000000000000000000000000000000000000000000000000000000815260040180806020018281038252602c815260200180611c17602c913960400191505060405180910390fd5b806003836040518082805190602001908083835b60208310610f6a5780518252602082019150602081019050602083039250610f47565b6001836020036101000a038019825116818451168082178552505050505050905001915050908152602001604051809103902060006101000a81548173ffffffffffffffffffffffffffffffffffffffff021916908373ffffffffffffffffffffffffffffffffffffffff1602179055505050565b610fe7610e7f565b73ffffffffffffffffffffffffffffffffffffffff163373ffffffffffffffffffffffffffffffffffffffff161461106a576040517f08c379a000000000000000000000000000000000000000000000000000000000815260040180806020018281038252602c815260200180611c17602c913960400191505060405180910390fd5b816005826040518082805190602001908083835b602083106110a1578051825260208201915060208101905060208303925061107e565b6001836020036101000a03801982511681845116808217855250505050505090500191505090815260200160405180910390205410156110e057600080fd5b6040518060400160405280600581526020017f65746865720000000000000000000000000000000000000000000000000000008152506040516020018082805190602001908083835b6020831061114c5780518252602082019150602081019050602083039250611129565b6001836020036101000a03801982511681845116808217855250505050505090500191505060405160208183030381529060405280519060200120816040516020018082805190602001908083835b602083106111be578051825260208201915060208101905060208303925061119b565b6001836020036101000a0380198251168184511680821785525050505050509050019150506040516020818303038152906040528051906020012014156112f257816005826040518082805190602001908083835b602083106112365780518252602082019150602081019050602083039250611213565b6001836020036101000a0380198251168184511680821785525050505050509050019150509081526020016040518091039020600082825403925050819055506000611280610e7f565b73ffffffffffffffffffffffffffffffffffffffff168360405180600001905060006040518083038185875af1925050503d80600081146112dd576040519150601f19603f3d011682016040523d82523d6000602084013e6112e2565b606091505b50509050806112f057600080fd5b505b6003816040518082805190602001908083835b602083106113285780518252602082019150602081019050602083039250611305565b6001836020036101000a038019825116818451168082178552505050505050905001915050908152602001604051809103902060009054906101000a900473ffffffffffffffffffffffffffffffffffffffff16600260006101000a81548173ffffffffffffffffffffffffffffffffffffffff021916908373ffffffffffffffffffffffffffffffffffffffff160217905550816005826040518082805190602001908083835b602083106113f357805182526020820191506020810190506020830392506113d0565b6001836020036101000a0380198251168184511680821785525050505050509050019150509081526020016040518091039020600082825403925050819055506000600260009054906101000a900473ffffffffffffffffffffffffffffffffffffffff1673ffffffffffffffffffffffffffffffffffffffff1663a9059cbb61147b610e7f565b856040518363ffffffff1660e01b8152600401808373ffffffffffffffffffffffffffffffffffffffff1673ffffffffffffffffffffffffffffffffffffffff16815260200182815260200192505050602060405180830381600087803b1580156114e557600080fd5b505af11580156114f9573d6000803e3d6000fd5b505050506040513d602081101561150f57600080fd5b810190808051906020019092919050505090508061152c57600080fd5b505050565b6040518060400160405280600581526020017f65746865720000000000000000000000000000000000000000000000000000008152506040516020018082805190602001908083835b6020831061159d578051825260208201915060208101905060208303925061157a565b6001836020036101000a03801982511681845116808217855250505050505090500191505060405160208183030381529060405280519060200120856040516020018082805190602001908083835b6020831061160f57805182526020820191506020810190506020830392506115ec565b6001836020036101000a0380198251168184511680821785525050505050509050019150506040516020818303038152906040528051906020012014156117a2578134101561165d57600080fd5b60008061166c34600154611bec565b9150915080600460008773ffffffffffffffffffffffffffffffffffffffff1673ffffffffffffffffffffffffffffffffffffffff168152602001908152602001600020886040518082805190602001908083835b602083106116e457805182526020820191506020810190506020830392506116c1565b6001836020036101000a038019825116818451168082178552505050505050905001915050908152602001604051809103902060008282540192505081905550816005886040518082805190602001908083835b6020831061175b5780518252602082019150602081019050602083039250611738565b6001836020036101000a0380198251168184511680821785525050505050509050019150509081526020016040518091039020600082825401925050819055505050611ade565b818410156117af57600080fd5b6003856040518082805190602001908083835b602083106117e557805182526020820191506020810190506020830392506117c2565b6001836020036101000a038019825116818451168082178552505050505050905001915050908152602001604051809103902060009054906101000a900473ffffffffffffffffffffffffffffffffffffffff16600260006101000a81548173ffffffffffffffffffffffffffffffffffffffff021916908373ffffffffffffffffffffffffffffffffffffffff16021790555060008061188886600154611bec565b915091506000600260009054906101000a900473ffffffffffffffffffffffffffffffffffffffff1673ffffffffffffffffffffffffffffffffffffffff166323b872dd33308a6040518463ffffffff1660e01b8152600401808473ffffffffffffffffffffffffffffffffffffffff1673ffffffffffffffffffffffffffffffffffffffff1681526020018373ffffffffffffffffffffffffffffffffffffffff1673ffffffffffffffffffffffffffffffffffffffff1681526020018281526020019350505050602060405180830381600087803b15801561196b57600080fd5b505af115801561197f573d6000803e3d6000fd5b505050506040513d602081101561199557600080fd5b810190808051906020019092919050505090508015611ada5781600460008873ffffffffffffffffffffffffffffffffffffffff1673ffffffffffffffffffffffffffffffffffffffff168152602001908152602001600020896040518082805190602001908083835b60208310611a2257805182526020820191506020810190506020830392506119ff565b6001836020036101000a038019825116818451168082178552505050505050905001915050908152602001604051809103902060008282540192505081905550826005896040518082805190602001908083835b60208310611a995780518252602082019150602081019050602083039250611a76565b6001836020036101000a0380198251168184511680821785525050505050509050019150509081526020016040518091039020600082825401925050819055505b5050505b7f737c69225d647e5994eab1a6c301bf6d9232beb2759ae1e27a8966b4732bc4893382604051808373ffffffffffffffffffffffffffffffffffffffff1673ffffffffffffffffffffffffffffffffffffffff1681526020018281526020019250505060405180910390a15050505050565b6000809054906101000a900473ffffffffffffffffffffffffffffffffffffffff1673ffffffffffffffffffffffffffffffffffffffff163373ffffffffffffffffffffffffffffffffffffffff1614611ba957600080fd5b806000806101000a81548173ffffffffffffffffffffffffffffffffffffffff021916908373ffffffffffffffffffffffffffffffffffffffff16021790555050565b6000806000606485850281611bfd57fe5b049050600081860390508181935093505050925092905056fe6f6e6c7920746865206f776e657220686176652061636365737320746f20746861742066756e6374696f6e2ea2646970667358221220257f9c55b320ee5d9015b69c08f2785966e8587dfc55bbba22d19ca9ccbd1d6864736f6c63430006000033",
  "source": "pragma solidity ^0.6.0;\r\n\r\nimport './interfaces/IERC20.sol';\r\nimport './Ownership.sol';\r\n\r\ncontract PaymentProcessor is Ownership{\r\n\r\n    event Paid(address buyer, uint256 productId);\r\n    \r\n    uint256 private percent;\r\n    IERC20 private token;\r\n\r\n    //only for ERC-20 tokens\r\n    mapping (string=>address) private _tokenAddress;\r\n    mapping (address=>mapping(string=>uint256)) private _sellerBalance;\r\n    mapping (string=>uint256) private _ownerBalance;\r\n\r\n    modifier onlyOwner{\r\n        require(msg.sender == owner(), \"only the owner have access to that function.\");\r\n        _;\r\n    }\r\n\r\n    constructor(address _owner, uint256 _percent) public Ownership(_owner){\r\n        percent = _percent;\r\n    }\r\n\r\n    //pay for the product\r\n    function pay(string memory _token,uint256 _amount,address _seller, uint256 _productPrice, uint256 _productId) public payable{\r\n        if (keccak256(abi.encodePacked((_token))) == keccak256(abi.encodePacked((string(\"ether\"))))){\r\n            require(msg.value >= _productPrice);\r\n            (uint256 ownerAmount, uint256 sellerAmount) = percentage(msg.value, percent);\r\n            _sellerBalance[_seller][_token] += sellerAmount;\r\n            _ownerBalance[_token] += ownerAmount;\r\n        } else{\r\n            require(_amount >= _productPrice);\r\n            token = IERC20(_tokenAddress[_token]);\r\n            (uint256 ownerAmount, uint256 sellerAmount) = percentage(_amount, percent);\r\n            bool success = token.transferFrom(msg.sender,address(this), _amount);\r\n            if(success){\r\n                _sellerBalance[_seller][_token] += sellerAmount;\r\n                _ownerBalance[_token] += ownerAmount; \r\n            }\r\n        }\r\n        emit Paid(msg.sender, _productId);\r\n    }\r\n\r\n    function balanceOfSeller(address _seller,string memory _token) public view returns(uint256){\r\n        return _sellerBalance[_seller][_token];\r\n    }\r\n\r\n    function sellerWithdraw(uint256 _amount, string memory _token) public {\r\n        require(_sellerBalance[msg.sender][_token] >= _amount);\r\n        if(keccak256(abi.encodePacked((_token))) == keccak256(abi.encodePacked((string(\"ether\"))))){\r\n            _sellerBalance[msg.sender][_token] -= _amount;\r\n            (bool success, ) = msg.sender.call.value(_amount)(\"\");\r\n            require(success);\r\n        }\r\n    \r\n        token = IERC20(_tokenAddress[_token]);\r\n        _sellerBalance[msg.sender][_token] -= _amount;\r\n        bool success = token.transfer(msg.sender,_amount);\r\n        require(success);\r\n    }\r\n\r\n    function ownerWithdraw(uint256 _amount, string memory _token) public onlyOwner{\r\n        require(_ownerBalance[_token] >= _amount);\r\n        if(keccak256(abi.encodePacked((_token))) == keccak256(abi.encodePacked((string(\"ether\"))))){\r\n            _ownerBalance[_token] -= _amount;\r\n            (bool success, ) = owner().call.value(_amount)(\"\");\r\n            require(success);\r\n        }\r\n        token = IERC20(_tokenAddress[_token]);\r\n        _ownerBalance[_token] -= _amount;\r\n        bool success = token.transfer(owner(),_amount);\r\n        require(success);\r\n    }\r\n\r\n    function ownerBalance(string memory _token) public view onlyOwner returns(uint256){\r\n        return _ownerBalance[_token];\r\n    }\r\n\r\n    //add new payment form\r\n    function addToken(string memory _token, address _tokenAddr) public onlyOwner{\r\n        _tokenAddress[_token] = _tokenAddr;\r\n    }\r\n\r\n    function setPercent(uint256 newPercent) public onlyOwner{\r\n        percent = newPercent;\r\n    }\r\n\r\n    function percentage(uint256 _amount, uint256 _percent) internal pure returns(uint256,uint256){\r\n        uint256 ownerAmount = (_percent * _amount) / 100;\r\n        uint256 sellerAmount = _amount - ownerAmount;\r\n        return (ownerAmount, sellerAmount);\r\n    }\r\n}\r\n",
  "sourcePath": "C:/Users/esdra/Downloads/paymentProcessor/contracts/PaymentProcessor.sol",
  "compiler": {
    "name": "solc",
    "version": "0.6.0+commit.26b70077.Emscripten.clang"
  },
  "schemaVersion": "3.3.4",
  "updatedAt": "2021-08-18T12:10:17.332Z",
  "devdoc": {
    "methods": {}
  },
  "userdoc": {
    "methods": {}
  }
}